:020000040800F2
:1000000010100020ED010008B9070008E9030008FE
:1000100021040008B90200082313000800000000B2
:10002000000000000000000000000000510A00086D
:10003000BD02000800000000410800089D0B0008F8
:10004000070200080702000807020008070200086C
:10005000070200080702000807020008070200085C
:10006000070200080702000807020008070200084C
:10007000070200080702000807020008070200083C
:10008000070200080702000807020008070200082C
:10009000070200080702000807020008070200081C
:1000A000070200080702000807020008070200080C
:1000B0000702000807020008A90C00080702000850
:1000C00007020008070200080702000807020008EC
:1000D00007020008390F000807020008C10F0008D6
:1000E00007020008070200080702000800000000DD
:1000F0000000000000000000000000000000000000
:1001000000000000000000000702000807020008CD
:10011000070200080702000807020008070200089B
:10012000070200080702000807020008070200088B
:10013000070200080702000807020008070200087B
:10014000070200080702000807020008070200086B
:1001500000F002F800F03AF80AA090E8000C82449F
:100160008344AAF10107DA4501D100F02FF8AFF27C
:10017000090EBAE80F0013F0010F18BFFB1A43F085
:1001800001031847841A0000A41A0000103A24BF83
:1001900078C878C1FAD8520724BF30C830C144BFEC
:1001A00004680C607047000000230024002500262E
:1001B000103A28BF78C1FBD8520728BF30C148BFCA
:1001C0000B6070471FB51FBD10B510BD00F045F89E
:1001D0001146FFF7F7FF01F0CBF800F063F803B426
:1001E000FFF7F2FF03BC01F09EF8000009488047CA
:1001F00009480047FEE7FEE7FEE7FEE7FEE7FEE709
:10020000FEE7FEE7FEE7FEE704480549054A064B20
:1002100070470000A10B000851010008100A0020DF
:1002200010100020100C0020100C0020704730B57A
:1002300005460B462A4613F8014B12F8010B08B18C
:10024000A042F8D01CB1002802D06D1CF1E728466E
:1002500030BD7047704770477047754600F028F80A
:10026000AE4605006946534620F00700854618B0A3
:1002700020B5FFF7C9FFBDE820404FF000064FF062
:1002800000074FF000084FF0000B21F00701AC46CB
:10029000ACE8C009ACE8C009ACE8C009ACE8C009EA
:1002A0008D4670470446AFF300802046FFF797FF66
:1002B00000487047B009002000BFFEE770472DE9F5
:1002C000F0410246002500260020002300240027DC
:1002D00091F803C00CF00F0591F803C00CF0100C5E
:1002E000BCF1000F03D091F802C04CEA050591F86B
:1002F00000C0BCF1000F31D0146800202BE04FF09B
:10030000010C0CFA00F3B1F800C00CEA03069E429F
:1003100020D183004FF00F0C0CFA03F7BC4305FA11
:1003200003FC4CEA040491F803C0BCF1280F06D189
:100330004FF0010C0CFA00FCC2F814C00AE091F86E
:1003400003C0BCF1480F05D14FF0010C0CFA00FCC2
:10035000C2F810C0401C0828D1D31460B1F800C006
:10036000BCF1FF0F34DD546800202EE000F1080CD2
:100370004FF0010808FA0CF3B1F800C00CEA0306CC
:100380009E4221D183004FF00F0C0CFA03F7BC43BF
:1003900005FA03FC4CEA040491F803C0BCF1280FF1
:1003A00005D100F1080C08FA0CF8C2F8148091F895
:1003B00003C0BCF1480F07D100F1080C4FF0010851
:1003C00008FA0CF8C2F81080401C0828CED35460FC
:1003D000BDE8F0814161704770B504460D4629467D
:1003E000204600F039F870BD00BFFEE708B50121D6
:1003F000102000F047FA10208DF803000220ADF81D
:10040000000003208DF8020069460448FFF757FFFB
:1004100002210248FFF7DEFF08BD00000010014086
:1004200000BFFEE70246134610E010782A2805D0E8
:100430001078202802DB10787A2801DDFF20704731
:1004400010782C2801D1481EC1B2521C0029ECD1D1
:10045000D01AC0B2F3E700002DE9F04F85B0044692
:10046000884692A14046FFF7E2FE07460121384642
:10047000FFF7D8FF0546FF2D23D0781904A900F017
:1004800026F982469DF810100A2000F015F9BAFBF3
:10049000F0F642F21070B6FBF0F0C1B27E200155CA
:1004A0006420B6FBF0F06421B0FBF1F201FB120115
:1004B0007F2001556420B6FBF0F100FB1161802024
:1004C000015503213846FFF7ADFF0546FF2D45D006
:1004D000781904A900F0FBF806469DF81000801C6E
:1004E000C1B20A2000F0E8F8B6FBF0F044F8810F42
:1004F0009DF81000801CC1B20A2000F0DDF8B6FBA8
:10050000F0F100FB116A504601F028FA81469DF88F
:100510001000C0F10500C1B20A2000F0CDF8009033
:1005200001F01CFA8346494601F02CFA82466149E3
:1005300001F016F9052102900A2000F0BDF82168AB
:1005400000FB01FA504601F009FA0190029901F00E
:10055000A5F8039001F0E2F944F881090421384636
:10056000FFF760FF0546FF2D02D0785D84F8850017
:1005700005213846FFF756FF0546FF2D45D078196F
:1005800004A900F0A4F806469DF81000801CC1B232
:100590000A2000F091F8B6FBF0F044F8860F9DF8C1
:1005A0001000801CC1B20A2000F086F8B6FBF0F102
:1005B00000FB116A504601F0D1F981469DF8100008
:1005C000C0F10500C1B20A2000F076F8009001F0F9
:1005D000C5F98346494601F0D5F98246354901F00F
:1005E000BFF8052102900A2000F066F8216800FBA0
:1005F00001FA504601F0B2F90190029901F04EF86B
:10060000039001F08BF944F8860906213846FFF77C
:1006100009FF0546FF2D02D0785D84F88A00092184
:100620003846FFF7FFFE0546FF2D1ED0781904A9B6
:1006300000F04DF8064642F21070B6FBF0F0C1B281
:100640007D2001556420B6FBF0F06421B0FBF1F28F
:1006500001FB12017C2001556420B6FBF0F100FB88
:10066000116000F5FA60A4F87A0007213846FFF718
:10067000D9FE0546FF2D16D0781904A900F027F8F9
:10068000A4F8A4009DF8100003280CDA9DF81000CF
:10069000C0F10300C1B20A2000F00EF8B4F8A410B3
:1006A0004843A4F8A40005B0BDE8F08F2447505299
:1006B0004D4300000000704210B50246012000E0EA
:1006C00050430B00A1F10104E1B2F9D110BD2DE9B5
:1006D000F34F81B007463C46002000908346814698
:1006E0000026804628E020782D2802D148F0020814
:1006F000641C20782C2802D020782A2800D11CE005
:1007000020782E2803D148F00108641C09E02078E5
:10071000392802DC2078302803DA4FF0000900265F
:100720000BE008F0010010B1701CC6B203E009F143
:10073000010000F0FF09641CD5E700BF08F00200CB
:1007400000B17F1C00250EE0A9F10100401BC1B2E1
:100750000A20FFF7B1FF795D3039009A00FB0120D4
:100760000090681CC5B24D45EEDB052E00DD052668
:100770000298067000250EE0701E401BC1B20A20D0
:10078000FFF79AFF09F101012944795C303900FB38
:1007900001BB681CC5B2B542EEDB31460A20FFF74B
:1007A0008BFF009901FB00BA08F0020008B1CAF102
:1007B000000A5046BDE8FE8F7047000070B500216A
:1007C00000230F22C47804B3154C246804F4E064B9
:1007D000C4F5E064210AC1F10403CA40447804FA74
:1007E00003F184781440214309010E4C0678A15589
:1007F000047804F01F050124AC4005786D11AD00AC
:1008000005F1E025C5F8004109E0047804F01F0572
:100810000124AC40044D0678761145F8264070BDA1
:100820000CED00E000E400E080E100E0024901435B
:10083000024A1160704700000000FA050CED00E06C
:100840007047000029B1064AD2690243044BDA61BD
:1008500004E0034AD2698243014BDA617047000029
:100860000010024029B1064A12690243044B1A6182
:1008700004E0034A12698243014B1A617047000089
:100880000010024029B1064A92690243044B9A6162
:1008900004E0034A92698243014B9A617047000069
:1008A0000010024029B1064AD2680243044BDA60C4
:1008B00004E0034AD2688243014BDA6070470000CB
:1008C000001002402DE9F041002100220025002304
:1008D0000026002400278C46DFF86081D8F80480C9
:1008E00008F00C0121B1042907D0082959D109E0E9
:1008F000DFF84C81C0F8008058E0DFF84481C0F890
:10090000008053E0DFF83481D8F8048008F47012D6
:10091000DFF82881D8F8048008F48035920C0D2A7D
:1009200001D0921C00E0062235B9DFF8188102FBE5
:1009300008F8C0F8008033E0DFF80081D8F82C8098
:1009400008F48036DFF8F480D8F82C8008F00F081F
:1009500008F1010446B9DFF8E880B8FBF4F808FBB9
:1009600002F8C0F800801BE0DFF8D080D8F82C80B7
:10097000C8F3031808F10107DFF8C080D8F82C800D
:10098000C8F3032808F1020CDFF8B480B8FBF7F8CD
:1009900008FB0CF8B8FBF4F808FB02F8C0F800807C
:1009A00004E0DFF89C80C0F8008000BF00BFDFF8E3
:1009B0008C80D8F8048008F0F0010909DFF88880FD
:1009C00018F80130D0F8008028FA03F8C0F8048045
:1009D000DFF86880D8F8048008F4E061090ADFF8DD
:1009E000688018F80130D0F8048028FA03F8C0F8BD
:1009F0000880DFF84880D8F8048008F46051C90AFC
:100A0000DFF8448018F80130D0F8048028FA03F8A1
:100A1000C0F80C80DFF82480D8F8048008F4404146
:100A2000890BDFF8288018F80130D0F80C80B8FB6B
:100A3000F3F8C0F81080BDE8F0810000001002401B
:100A400000127A0000093D00200000203000002044
:100A5000704710B500F002F810BD00000CB5002082
:100A6000019000903F48006840F480303D490860A4
:100A700000BF3C48006800F4003000900198401C22
:100A80000190009818B90198B0F5A06FF1D13548E0
:100A9000006800F4003010B10120009001E0002057
:100AA0000090009801285CD12F48006840F01000A9
:100AB0002D4908600846006820F0030008600846D9
:100AC000006840F0020008602648406825494860F8
:100AD0000846406848600846406840F480604860C6
:100AE0000846C06A214908401E49C8620846C06AD3
:100AF0001F4908431B49C8620846006840F08060EF
:100B0000086000BF1748006800F000600028F9D0B6
:100B10001448406820F47C10124948600846406838
:100B200040F4E81048600846006840F080700860B3
:100B300000BF0C48006800F000700028F9D0094898
:100B4000406820F00300074948600846406840F0CC
:100B50000200486000BF0348406800F00C0008280D
:100B6000F9D10CBD001002400020024000F0FEFF51
:100B700014080100042808D14FF0E021096941F070
:100B800004014FF0E022116107E04FF0E021096914
:100B900021F004014FF0E02211617047704700001E
:100BA00010B51648006840F0010014490860084676
:100BB00040681349084011494860084600681149D7
:100BC00008400E4908600846006820F4802008604C
:100BD0000846406820F4FE0048600846006820F09F
:100BE000A05008604FF47F0088600020C862FFF7C3
:100BF00030FF4FF000600449086010BD0010024053
:100C00000000FFF0FFFFF6FE08ED00E030B589B010
:100C100005460C460121C802FFF734FE01210420DD
:100C2000FFF730FE4FF48070ADF8200018208DF8EB
:100C3000230003208DF8220008A91948FFF73FFB85
:100C4000ADF81850ADF814400020ADF81A00ADF81A
:100C5000160005A9134800F01DF97020ADF8040036
:100C60000120ADF806000020ADF80A000220ADF822
:100C70000C0001A90B4800F0B3F80121094800F06D
:100C800086F80821074800F0F7F80121054800F030
:100C900063F80121034800F06EF809B030BD000090
:100CA00000080140002C014010B50121084800F067
:100CB0007DF860B10748008840F40040054908808D
:100CC0000121034800F054F8002000F031F810BD75
:100CD000000800403E0000207FB505460C4601217B
:100CE0000420FFF7AFFDADF80450ADF80040002040
:100CF000ADF80600ADF8020069460C4800F0CAF8ED
:100D000001221146094800F062F81E208DF80C00FF
:100D100001208DF80D0002208DF80E0001208DF8C5
:100D20000F0003A8FFF74AFD7FBD00000008004048
:100D300010B5044644B10021064800F0A8F801218E
:100D4000044800F018F803E00021024800F013F80E
:100D500010BD00000008004021B1028842F080026E
:100D6000028004E002884FF67F731A4002807047C9
:100D7000CA430282704721B1028842F00102028018
:100D800004E002884FF6FE731A400280704731B1CA
:100D9000B0F8442042F40042A0F8442005E0B0F846
:100DA0004420C2F30E02A0F84420704730B502463A
:100DB000002000230024158A05EA0103958905EA2D
:100DC000010413B10CB1012000E0002030BD1AB1C4
:100DD00083890B43838102E083898B43838170473E
:100DE00070B5002400220023058C4FF6FE763540B6
:100DF0000584028C8388048B4FF68F752C40B51EBA
:100E00002C400D882C43751E2A400D892A434D889D
:100E10002A43144DA8420BD0134DA84208D0134DBD
:100E2000A84205D0124DA84202D0124DA84213D1BB
:100E30004FF6F7752A404D892A434FF6FB752A4035
:100E40008D882A434FF6FF652B404FF6FF552B4008
:100E50008D892B43CD892B4383800483CD88858660
:100E6000028470BD002C014000340140004001406C
:100E700000440140004801400A460021018B4FF622
:100E8000F77319401143018370478186704781844D
:100E900070470000002202881D4B98420ED01D4B67
:100EA00098420BD0B0F1804F08D01B4B984205D030
:100EB0001A4B984202D01A4B984204D14FF68F73C6
:100EC0001A404B881A43174B984207D0164B98424A
:100ED00004D04FF6FF431A40CB881A4302808B8818
:100EE00083850B8803850A4B98420BD0094B9842A7
:100EF00008D00E4B984205D00D4B984202D00D4BB6
:100F0000984201D10B7A0386012383827047000047
:100F1000002C014000340140000400400008004063
:100F2000000C004000100040001400400040014050
:100F3000004401400048014010B540F225511D48D1
:100F400000F02EF910B31B4800F0E6F9C4B21A48BD
:100F5000008800F40040C8B91748008800F48040B9
:100F600060B10A2C03D000201349088020E0124809
:100F7000008840F400401049088019E00D2C06D18B
:100F80000D48008840F480400B49088010E00A4872
:100F90000088C0F30D0009490C5407480088401C24
:100FA0000549088008460088C72801DD0020088020
:100FB00010BD0000003801403C000020E600002089
:100FC00010B540F22551134800F0EAF808B3114873
:100FD00000F0A2F9C4B210480088B0F5806F12DAB0
:100FE00000210E48FFF753FF0B48008810B901207D
:100FF000FFF79EFE084801880088401C064A1080C2
:101000000748445405E00448008840F40040024981
:10101000088010BD004800403E000020000800404D
:10102000B005002010B586B0044601210820FFF766
:1010300029FC01218804FFF705FC294800F062F82B
:101040004FF48060ADF8100003208DF812001820D6
:101050008DF8130004A92348FFF731F94FF400601D
:10106000ADF8100004208DF8130004A91D48FFF707
:1010700026F900940020ADF80400ADF80600ADF8A4
:101080000800ADF80C000C20ADF80A0069461448C1
:1010900000F0D6F80121124800F028F8012240F2B1
:1010A00025510F4800F0A6F827208DF814000220E3
:1010B0008DF8150003208DF8160001208DF817001B
:1010C00005A8FFF77BFB41F61F4140F2E730FFF731
:1010D00003FE002004490880FFF72AFE06B010BD79
:1010E00000480040000C01403E00002021B18289F0
:1010F00042F40052828104E082894DF6FF731A4067
:101100008281704710B504462048844209D10121EC
:101110008803FFF7C7FB00214FF48040FFF7C2FBB5
:1011200032E01B48844209D101214804FFF79AFBB1
:1011300000214FF40030FFF795FB25E0154884426D
:1011400009D101218804FFF78DFB00214FF4802095
:10115000FFF788FB18E01048844209D10121C80438
:10116000FFF780FB00214FF40020FFF77BFB0BE033
:101170000A48844208D101210805FFF773FB0021CA
:101180004FF48010FFF76EFB10BD000000380140E7
:101190000044004000480040004C00400050004027
:1011A00070B50246002400230025002040F66A1690
:1011B000B14200D100BFC1F3421501F01F03012667
:1011C00006FA03F3012D02D19689334006E0022D81
:1011D00002D1168A334001E0968A33400C12012670
:1011E00006FA04F41688344013B10CB1012000E073
:1011F000002070BDF0B50346002400260025002025
:1012000040F66A17B94200D100BF1846C1F3421434
:1012100001F01F06012707FA06F5012C01D10C3059
:1012200004E0022C01D1103000E014301AB107683C
:101230002F43076002E00768AF430760F0BD00007E
:101240002DE9F04786B005460E460024A24600BFB1
:10125000A1460027B08900B100BF2F462C8A4CF66A
:10126000FF700440F08804432C82AC894EF6F310E2
:101270000440B08831890843718908430443AC8134
:10128000AC8A4FF6FF400440B0890443AC8201A809
:10129000FFF718FB1F48874202D1DDF810A001E0DC
:1012A000DDF80CA0A88900F4004040B10AEBCA00A8
:1012B00000EB0A1031684900B0FBF1F807E00AEBD7
:1012C000CA0000EB0A1031688900B0FBF1F8642015
:1012D000B8FBF0F004012009642101FB1089A88902
:1012E00000F4004040B1322000EBC900B0FBF1F047
:1012F00000F00700044308E0322000EB09106421ED
:10130000B0FBF1F000F00F0004432C8106B0BDE803
:10131000F08700000038014001468888C0F30800CB
:10132000704700BFFEE7014600BF704710B56FF081
:101330000400FFF71FFC0A4800680A49B0FBF1F0FF
:10134000094908700846007800EB4001C1EBC01065
:101350004FF6FF7101EAC0000449088010BD00008B
:101360000C00002000127A0034000020360000201B
:10137000FFF7DCFF4FF4A060FFF758FA4FF49640F8
:10138000FFF750FEFFF732F800214AF6C870FFF76A
:101390003DFC2BE01648008800F4004030B31548AF
:1013A0000068C0431449C1F8840114491448FFF788
:1013B00013F81349B1F8A40000F05FF80646114A8B
:1013C000114B00F06DF8044600F026F80F49086054
:1013D0000846006800F086FA0D4908800846018832
:1013E0000C48FFF752FD002001490880D2E70000B9
:1013F0003E0000208401224200002242B00500206D
:10140000400000206F1283C0CAA10D4004000020DC
:1014100008000020002C014021F00042A2F160529F
:10142000B2F5801F01F0004328BFD2F17F6C0BD9C9
:101430005FEA001C43EAC20242EB507018BF7047DB
:1014400028BF20F001007047B2F5801FBCBF1846CE
:1014500070474FEA410C1CF5001F02D2084600F00D
:1014600058BB70B500F0C6F800000089FFF7F6BF62
:101470004FF00040A0F580007047B0FA80F310FAFA
:1014800003F10AD0C3F11D0303F580634FEA415015
:101490004FEA035202EBD12170474FF00000704732
:1014A000DFF848C170B51CEA111E1EBF1CEA1315F7
:1014B0009EEA0C0F95EA0C0F00F06F8081EA03049E
:1014C00023EA4C134EEAD47E21EA4C1141F48011F8
:1014D00043F48013AE44A1FB024CA0FB0365AEF1C4
:1014E0007F7E361955EB0C05A1FB034C4CF1000334
:1014F000A0FB021C16EB0C06654153F100030942E8
:1015000018BF46F0010613F4007F0BD14FEA0331F8
:101510004FEA0530340341EA155140EA16506FF0A6
:1015200003020AE04FEAC3214FEAC520F40241EA70
:10153000555140EA56506FF0020202EB2E4201EB89
:10154000025585EACE710AD05FEA440C18BF24F038
:10155000004450F1000041F1000120EAD47040F253
:10156000FE7C624500D270BDA84214BF4FF080449B
:101570004FF04044002E08BF0024BEF1806FA8BF8A
:10158000A1F1C041BDE8704080F282804FF00000C0
:1015900001F1C04101F0004170479EEA0C0F0CEAD6
:1015A000131518BF95EA0C0F06D04FF0000081EA22
:1015B000030E0EF0004170BD00F01CF88900013EE2
:1015C00000F007B800F009B84FEA430C5FEA5C5C32
:1015D00008D081EA030100F05BB84FEA410C5FEAF2
:1015E0005C5CF6D14FF00000014970470000FF0736
:1015F0000000F87F0EF1020E2EF0030E5EF8046B71
:10160000364205D4012A43EB030515F5001F12D815
:10161000012841EB010C1CF5001F0CD80ED14FEA3C
:10162000D17C15F5001F0CEB4C0C0CF1020C08BF23
:101630004CEBD37C04E04FF0080C01E04FEAD37C84
:101640000CEB4C0526FA05F606F00706B6F1040C7D
:1016500006D20EEB860CBDE870404CF0010C6047E2
:10166000DFE80CF0090B02024FF000414FF00000E0
:10167000A1F5002170BD19461046012851EB010467
:1016800018BFD4F5001484BF002001F0004170BDE4
:101690000808A0F500114FEA3101704790EA010FE8
:1016A00048BF81F0004100F14082421A3CBF801ADD
:1016B00089184FEAD0524FF07F4C1CEA410FA2EB41
:1016C000D15318BF9CEA026F00F03B804FF0004CF2
:1016D0004CEA00204CEA012121FA03FC10EB0C0C2F
:1016E0001ED202F1FF325FEA1C2040EBC25038BF2D
:1016F00070471CF07F0F4FEA400C18BFBCF17F4FC2
:1017000038BF7047C3F12003994008BF20F00100A3
:10171000BCF17F4F38BF7047A0F1C04000F0F9B96D
:101720004FEA3C00000A40EBC25028BF1CF0FF0FFC
:101730004FEA400CE6D018BFBCF17F4F38BF70476E
:10174000EAE79CEA026F05D010EA5C0F08BF00F0E0
:101750000040704710B500F096F900BF64FBBE3E34
:101760004FF47F0C1CEAD0121EBF1CEAD11392EA80
:101770000C0F93EA0C0F00F0858090EA010F48BF30
:1017800042F4807240F4000C41F400002CF07F41E0
:1017900020F07F4000B58142A2EB03020FF2081C4B
:1017A000ACEB504EC0F100009EF800E04FEA4E0E48
:1017B00000FB0EFC38BF49004FEA2C1C02F5FA0270
:1017C0000CFB0EF34FEACE1E4FEA112C4FEAC1215B
:1017D0000EEB635E42EB22420EFB0CFC4FEA1C5305
:1017E00000FB03114FEA112C4FEA01310EFB0CFCF8
:1017F0004FEADC4C00FB0C11C14228BF09184CEB2E
:1018000003335DF804EB10EB410143EBC250B2F53A
:101810007C0F38BF704729D512F0F00F1CBF00F1C4
:10182000C04000F000407047008182838485868735
:1018300088898B8C8D8E8F919293959697999A9C8F
:101840009D9FA0A2A3A5A7A8AAACAEB0B2B3B5B7FE
:10185000B9BCBEC0C2C5C7C9CCCED1D4D7D9DCDFD4
:10186000E2E6E9ECF0F3F7FAFE0000004FEA400C84
:101870000CF1807CBCF17E4F28BF7047B0F1C040B6
:1018800000F047B990EA010F0CEAD11348BF42F4C7
:101890008072624538BF634507D213F47F0F16D0BC
:1018A00080EA010000F00040704710B500F0EBF84E
:1018B000097EFC3E00F005B880EA010000F000401F
:1018C000704780EA010000F0004000F022B912F4F5
:1018D0007F0F04BF0248704780EA010000F019B989
:1018E0000000C07F41000B0ED3F19E0208D950F4D6
:1018F00000034FEA032323FA02F048BF4042704737
:1019000010B500F0C0F800BF499224800020704755
:101910006FF0004282EA200070470000C10DD1F153
:101920009E0206DB4FEA002343F0004323FA02F055
:101930007047004207D54FEA4001B1F1FE4F02D295
:101940004FF00000704710B500F09DF849922480D8
:10195000002070476FEA200070470000B0FA80F363
:1019600010FA03F2C3F19D030AD0D90501EB12204E
:10197000530638BF704700F1010008BF20F0010096
:10198000704700004FF47F0C1CEAD0121EBF1CEA07
:10199000D11392EA0C0F93EA0C0F00F0478090EA03
:1019A000010F48BF42F480724FF0004C4CEA002017
:1019B0004CEA012102EB0302A0FB0113A2F5000295
:1019C000002918BF43F001035B0028BF4FEA33032F
:1019D00042EB22425FEA132C4CEBC2502EBFBCEB11
:1019E000436FB2F57C0F70474FEA036CBCF1004FB8
:1019F00008BF20F00100B2F57C0F38BF70470BD54F
:101A000082F0FF0212F5803FC8BF704700F1C0406E
:101A1000D8BF00F00040704700F5000C5FEA4C0CA6
:101A200048BF7047B0F1C04000F073B890EA010FB2
:101A30000CEAD11348BF42F48072624538BF634557
:101A400004D280EA010000F00040704710B500F0B9
:101A50001AF800BF8900013E00F007B800F009B88D
:101A60005FEA410C5FEA1C6C08D080EA010000F0DC
:101A700050B85FEA400C5FEA1C6CF6D14FF00040B2
:101A8000A0F5800070470EF1020E2EF0030E5EF8F6
:101A9000044B244204D44FEA4102B2F17F4F11D8E3
:101AA0004FEA4003B3F17F4F0CD80ED14FEAD07C00
:101AB000B2F17F4F0CEB4C0C0CF1020C08BF4CEB5D
:101AC000D17C04E04FF0080C01E04FEAD17C0CEB34
:101AD0004C0324FA03F404F00704B4F1040C06D216
:101AE0000EEB840CBDE810404CF0010C6047DFE8C1
:101AF0000CF0070802024FF00040A0F5800010BD76
:101B00000846420018BFD2F1807288BF00F0004042
:101B100010BDFF2141EAD050C005704790EA010F87
:101B200048BF81F000413FF5C0AD421A04D882F0B1
:101B30000042A0EB020011444FEAD0524FF07F4C1C
:101B40001CEA410FA2EBD15318BF9CEA026F4AD0A6
:101B50004FF0004C4CEA00204CEA012121FA03FC32
:101B6000B0EB0C0C0FD412F0FE0F36D05FEA4C0035
:101B70001DD5001240EBC25038BF70471CF03F0F1C
:101B800018BF70470BE0A2F101025FEA1C2040EB96
:101B9000C25038BF70471CF07F0F18BF7047C3F1A9
:101BA0002003994014BF401E20F0010070478008B8
:101BB0004FEA122308BF7047B0FA80FCA2EB0C0278
:101BC000CCF1280C60FA0CF093EA122F04BF00EB62
:101BD000C25070474FEAC3707047130A5FEADC10C7
:101BE00008BF7047F6E79CEA026F04D010EA5C0F6A
:101BF00008BF0020704710B5FFF745FF40DFF63EF5
:101C000081F0004070470000281C00080000002000
:101C1000400000008C010008681C00084000002003
:101C2000D00F0000A8010008000000000000000024
:101C30000000000000A24A040000000000000000B4
:101C40000102030406070809000000000102030462
:101C50000102030406070809020406080000000048
:081C600000000000000000007C
:04000005080001519D
:00000001FF
